{
  "abi": [
    {
      "inputs": [
        {
          "internalType": "address",
          "name": "_owner",
          "type": "address"
        }
      ],
      "stateMutability": "nonpayable",
      "type": "constructor"
    },
    {
      "inputs": [
        {
          "internalType": "address",
          "name": "",
          "type": "address"
        }
      ],
      "name": "NotOwner",
      "type": "error"
    },
    {
      "anonymous": false,
      "inputs": [
        {
          "indexed": false,
          "internalType": "string",
          "name": "name",
          "type": "string"
        },
        {
          "indexed": true,
          "internalType": "uint256",
          "name": "age",
          "type": "uint256"
        }
      ],
      "name": "PersonSet",
      "type": "event"
    },
    {
      "inputs": [],
      "name": "getPerson",
      "outputs": [
        {
          "components": [
            {
              "internalType": "string",
              "name": "name",
              "type": "string"
            },
            {
              "internalType": "uint8",
              "name": "age",
              "type": "uint8"
            }
          ],
          "internalType": "struct IData.Person",
          "name": "",
          "type": "tuple"
        }
      ],
      "stateMutability": "view",
      "type": "function"
    },
    {
      "inputs": [],
      "name": "owner",
      "outputs": [
        {
          "internalType": "address",
          "name": "",
          "type": "address"
        }
      ],
      "stateMutability": "view",
      "type": "function"
    },
    {
      "inputs": [],
      "name": "person",
      "outputs": [
        {
          "internalType": "string",
          "name": "name",
          "type": "string"
        },
        {
          "internalType": "uint8",
          "name": "age",
          "type": "uint8"
        }
      ],
      "stateMutability": "view",
      "type": "function"
    },
    {
      "inputs": [
        {
          "components": [
            {
              "internalType": "string",
              "name": "name",
              "type": "string"
            },
            {
              "internalType": "uint8",
              "name": "age",
              "type": "uint8"
            }
          ],
          "internalType": "struct IData.Person",
          "name": "_person",
          "type": "tuple"
        }
      ],
      "name": "setPerson",
      "outputs": [],
      "stateMutability": "nonpayable",
      "type": "function"
    }
  ],
  "bytecode": {
    "object": "0x608060405234801561001057600080fd5b506040516106cd3803806106cd83398101604081905261002f91610054565b600080546001600160a01b0319166001600160a01b0392909216919091179055610084565b60006020828403121561006657600080fd5b81516001600160a01b038116811461007d57600080fd5b9392505050565b61063a806100936000396000f3fe608060405234801561001057600080fd5b506004361061004c5760003560e01c80634df877771461005157806377ec2b55146100665780638da5cb5b146100855780638ec4dc95146100b0575b600080fd5b61006461005f3660046102c0565b6100c5565b005b61006e61015d565b60405161007c92919061034f565b60405180910390f35b600054610098906001600160a01b031681565b6040516001600160a01b03909116815260200161007c565b6100b86101f8565b60405161007c9190610374565b6000546001600160a01b031633146100f65760405163245aecd360e01b815233600482015260240160405180910390fd5b80600161010382826104a5565b50610116905060408201602083016105b8565b60ff167f3f8af60c68a2828acc8ae1f6b5f0907bcab124cf871668eb134fa417529e895e61014483806103a9565b6040516101529291906105d5565b60405180910390a250565b60018054819061016c906103f7565b80601f0160208091040260200160405190810160405280929190818152602001828054610198906103f7565b80156101e55780601f106101ba576101008083540402835291602001916101e5565b820191906000526020600020905b8154815290600101906020018083116101c857829003601f168201915b5050506001909301549192505060ff1682565b604080518082019091526060815260006020820152600160405180604001604052908160008201805461022a906103f7565b80601f0160208091040260200160405190810160405280929190818152602001828054610256906103f7565b80156102a35780601f10610278576101008083540402835291602001916102a3565b820191906000526020600020905b81548152906001019060200180831161028657829003601f168201915b50505091835250506001919091015460ff16602090910152919050565b6000602082840312156102d257600080fd5b813567ffffffffffffffff8111156102e957600080fd5b8201604081850312156102fb57600080fd5b9392505050565b6000815180845260005b818110156103285760208185018101518683018201520161030c565b8181111561033a576000602083870101525b50601f01601f19169290920160200192915050565b6040815260006103626040830185610302565b905060ff831660208301529392505050565b6020815260008251604060208401526103906060840182610302565b905060ff60208501511660408401528091505092915050565b6000808335601e198436030181126103c057600080fd5b83018035915067ffffffffffffffff8211156103db57600080fd5b6020019150368190038213156103f057600080fd5b9250929050565b600181811c9082168061040b57607f821691505b60208210810361042b57634e487b7160e01b600052602260045260246000fd5b50919050565b601f82111561047b57600081815260208120601f850160051c810160208610156104585750805b601f850160051c820191505b8181101561047757828155600101610464565b5050505b505050565b60ff8116811461048f57600080fd5b50565b6000813561049f81610480565b92915050565b8135601e198336030181126104b957600080fd5b8201803567ffffffffffffffff8111156104d257600080fd5b602081360381840113156104e557600080fd5b6104f9826104f386546103f7565b86610431565b6000601f83116001811461052f576000841561051757508482018301355b600019600386901b1c1916600185901b17865561058c565b600086815260209020601f19851690835b82811015610561578785018601358255938501936001909101908501610540565b50858210156105805760001960f88760031b161c198585890101351681555b505060018460011b0186555b50506105b161059c828701610492565b6001860160ff821660ff198254161781555050565b5050505050565b6000602082840312156105ca57600080fd5b81356102fb81610480565b60208152816020820152818360408301376000818301604090810191909152601f909201601f1916010191905056fea2646970667358221220b008684a02180b540d899e0f5dace149dd363dd6120567406abc5905fbfe04a264736f6c634300080d0033",
    "linkReferences": {}
  },
  "methodIdentifiers": {
    "getPerson()": "8ec4dc95",
    "owner()": "8da5cb5b",
    "person()": "77ec2b55",
    "setPerson((string,uint8))": "4df87777"
  },
  "id": 16
}